:100000000C941D040C947A180C943A040C943A0441
:100010000C943A040C943A040C943A040C943A0468
:100020000C943A040C943A040C943A040C940A1973
:100030000C943A040C943A040C943A040C943A0448
:100040000C943A040C943A040C943A040C943A0438
:100050000C943A040C943A040C943A040C943A0428
:100060000C943A040C943A04A40B470CE10C870D51
:100070002F0ECA0E700F078A006D61696E206D65C4
:100080006E7500000000000000000074696D6500DE
:10009000000000000000000000000000B60901732D
:1000A00065742074696D65000000000000000000A8
:1000B000670B0270756D70310000000000000000D9
:1000C0000000560260050370756D7032000000007C
:1000D000000000000000B60160050470756D70330B
:1000E0000000000000000000000016016005054C43
:1000F000434420636F6E74726173740000000000EB
:1001000031060661626F7574000000000000000097
:1001100000000000CE05072A0170756D7033206D58
:10012000656E750000000000340100736574207472
:10013000696D65000000000000000000180A0173EE
:100140006574206461790000000000000000000078
:100150002A080273657420766F6C000000000000AE
:10016000000000009A060370756D702063616C6971
:100170006200000000000000F7060474696D6572FB
:10018000206F6E2F6F666600000000001E09056D6F
:100190006F6973742073656E736F72000000F602EE
:1001A0006005076261636B00000000000000000052
:1001B00000007600600507CA0170756D7032206D11
:1001C000656E7500000000003F01007365742074C7
:1001D000696D65000000000000000000180A01734E
:1001E00065742064617900000000000000000000D8
:1001F0002A080273657420766F6C0000000000000E
:10020000000000009A060370756D702063616C69D0
:100210006200000000000000F7060474696D65725A
:10022000206F6E2F6F666600000000001E09056DCE
:100230006F6973742073656E736F720000008203C0
:100240006005076261636B000000000000000000B1
:10025000000076006005076A0270756D7031206DD0
:10026000656E7500000000004A010073657420741B
:10027000696D65000000000000000000180A0173AD
:100280006574206461790000000000000000000037
:100290002A080273657420766F6C0000000000006D
:1002A000000000009A060370756D702063616C6930
:1002B0006200000000000000F7060474696D6572BA
:1002C000206F6E2F6F666600000000001E09056D2E
:1002D0006F6973742073656E736F720000000E0493
:1002E0006005076261636B00000000000000000011
:1002F000000076006005060A036D6F697374332091
:100300006D656E75000000000A01006D6F69737401
:10031000206C6576656C0000000000003C10016DEB
:100320006F69737420656570726F6D000000000066
:100330007C10026D6F697374207468726573680055
:1003400000000000C507026D6F69737420766F6C42
:1003500000000000000000006807036D6F697374FF
:10036000206F6E2F6F666600000000006A0904624D
:1003700061636B0000000000000000000000160137
:1003800060050696036D6F69737432206D656E7536
:10039000000000001601006D6F697374206C6576B3
:1003A000656C0000000000003C10016D6F69737403
:1003B00020656570726F6D00000000007C10026D9A
:1003C0006F697374207468726573680000000000C0
:1003D000C507026D6F69737420766F6C00000000B2
:1003E000000000006807036D6F697374206F6E2F43
:1003F0006F666600000000006A09046261636B00BA
:1004000000000000000000000000B60160050622A8
:10041000046D6F69737431206D656E7500000000A6
:100420002201006D6F697374206C6576656C000045
:10043000000000003C10016D6F69737420656570E9
:10044000726F6D00000000007C10026D6F697374A4
:10045000207468726573680000000000C507026DB3
:100460006F69737420766F6C00000000000000005C
:100470006807036D6F697374206F6E2F6F66660077
:10048000000000006A09046261636B000000000064
:100490000000000000005602600500000000170088
:1004A0000300031F0A1F0A1F050904120F171C006F
:1004B0000300000E11110E00050205040E041008C1
:1004C000000404040010000804021F111F121F1072
:1004D0001D151711151F07041F17151D1F151D01C9
:1004E000011F1F151F17151F000A00100A00040A1C
:1004F000110A0A0A110A040115030E15161E051E1B
:100500001F150A0E11111F110E1F15151F05050EBF
:10051000151D1F041F111F1108100F1F041B1F1092
:10052000101F061F1F0E1F0E110E1F05020E111E9B
:100530001F0D16121509011F010F100F0718071FB5
:100540000C1F1B041B031C031915131F11000204AD
:100550000800111F0201021010100102001A161CDF
:100560001F120C0C12120C121F0C1A16041E050678
:10057000150F1F021C001D0010100D1F0C12111F63
:10058000101E0E1E1E021C0C120C1E0A04040A1E53
:100590001C0202141E0A021F120E101E0E100E1E46
:1005A0001C1E120C1202141E1A1E16041B11001F10
:1005B00000111B040406021F1F1F000000000000A2
:1005C000000000000000000000000000000000002B
:1005D000000000000000000000000000000000001B
:1005E0002F000000000700070000147F147F140094
:1005F000242A7F2A12003234081626003649552252
:100600005000000503000000001C224100000041D2
:10061000221C000014083E08140008083E080800C8
:10062000000050300000101010101000006060003A
:1006300000002010080402003E5149453E000042DF
:100640007F4000004261514946002141454B310045
:100650001814127F10002745454539003C4A494986
:100660003000017109050300364949493600064941
:1006700049291E00003636000000005636000000F2
:100680000814224100001414141414000041221410
:100690000800020151090600324959513E007E11FD
:1006A00011117E007F49494936003E4141412200F7
:1006B0007F4141221C007F49494941007F090909C6
:1006C00001003E4149497A007F0808087F00004147
:1006D0007F4100002040413F01007F08142241007B
:1006E0007F40404040007F020C027F007F040810E2
:1006F0007F003E4141413E007F09090906003E411D
:1007000051215E007F0919294600464949493100B7
:1007100001017F0101003F4040403F001F20402079
:100720001F003F4038403F0063140814630007086F
:1007300070080700615149454300007F41410000B6
:10074000552A552A55000041417F0000040201024C
:1007500004004040404040000001020400002054DA
:10076000545478007F4844443800384444442000BE
:10077000384444487F00385454541800087E090116
:1007800002000C5252523E007F08040478000044DC
:100790007D4000002040443D00007F1028440000C0
:1007A00000417F4000007C04180478007C080404A9
:1007B00078003844444438007C14141408000814A9
:1007C00014187C007C080404080048545454200089
:1007D000043F444020003C4040207C001C2040203E
:1007E0001C003C4030403C004428102844000C5081
:1007F00050503C004464544C4400007F3E1C0800B0
:10080000081C3E7F0000087C7E7C0800103E7E3E77
:1008100010007F7F7F7F7F00007F3E1C080000006C
:10082000000000003E2222223E003E3E3E3E3E00B0
:100830000609120906000000000011241FBECFEFB8
:10084000D8E0DEBFCDBF12E0A0E0B1E0ECE2FAE319
:1008500002C005900D92AE36B107D9F724E0AEE69E
:10086000B2E001C01D92AC38B207E1F70E94A504C6
:100870000C94141D0C940000623021F40E94490471
:10088000845E0895683008F06F5F61708EE1860FB6
:1008900008959C0123703327232B59F464E670E0FC
:1008A0000E949A1C892B39F46370772781E0672BAB
:1008B00019F080E0089581E008958A3030F020E05A
:1008C0002F5F8A508A30E0F701C020E090E1299F35
:1008D00090011124822B0895883E23E0920758F05E
:1008E00020E030E02F5F3F4F885E9340883E43E03A
:1008F0009407C0F702C020E030E022953295307FA7
:100900003227207F32278436910538F02F5F3F4F02
:100910008456910984369105C8F722953295307F27
:100920003227207F32278A30910530F02F5F3F4FEA
:100930000A978A309105D0F722953295307F322779
:10094000207F3227822B932B08950E94D1180E947A
:10095000D21688E30E949B1387EA91E60197F1F78C
:1009600000C000000E94E3180E9489180E946A11CA
:1009700078940E948413E0910001F091010160E0FD
:1009800080E00995C1E0DFEF14E10E9495188093A3
:100990006E028F3F24F4D0936E028D2F0AC08230F6
:1009A00024F0C0936E028C2F04C080916E028823C5
:1009B00051F010928402E0910001F091010160E099
:1009C000099510926E0280917D02882309F454C02B
:1009D00010928402E0910201F091030120917302D0
:1009E0002103C00111249F012F5F3F4FF901459161
:1009F0005591FA01E80FF91F729645915591509360
:100A0000010140930001F90125913591820F931F57
:100A1000FC0172962591359120563540F1F4FC0188
:100A20007096259135913093030120930201C901FD
:100A30004296FC018591959132979093750280932F
:100A400074021092730271970590F491E02D7296E2
:100A5000859195918056954021F080917C0281117D
:100A600002C00E94841310927D02E0910001F09177
:100A700001016C2F80E009950E94F3160E948017F7
:100A80000E94AC110E94C41680918304882349F00F
:100A9000E0910001F091010160E080E00995109281
:100AA00083042FE243E560E080E00E942C130E9463
:100AB000441283ED90E30197F1F700C0000065CF89
:100AC0000F931F93CF93DF9390917302890F8093BD
:100AD0007302E0910201F0910301949189171CF0D7
:100AE00091509093730290917302992324F4109281
:100AF000730290E006C0943024F08DEF890F80934C
:100B00006F0280916F02981714F490936F02CF01D7
:100B100003960E94521511E0C0E0D0E004E120915C
:100B2000730280916F02AE01480F511D87FD5A95E7
:100B3000822F022E000C990B8417950791F4E091F7
:100B40000201F091030131962003C0011124259187
:100B50003591820F931F41E0612F01960E94F2159B
:100B600013C0E0910201F09103013196049FC0018E
:100B7000059F900D112425913591820F931F40E020
:100B8000612F01960E94F21521961F5FC430D10596
:100B900031F6DF91CF911F910F9108950F93CF936D
:100BA000C62F0E9484136DE080E00E94C91387E085
:100BB000E7E8F1E0A6E8B1E001900D928A95E1F74F
:100BC00041E061E08EE791E00E94951466E180E0EB
:100BD0000E94C9138DE0E7E9F1E0A6E9B1E00190D8
:100BE0000D928A95E1F741E061E08EE891E00E9484
:100BF000951468E28EE00E94C9138091850266E038
:100C0000680F01E021E44EE082500E949C1241E016
:100C100060E087EC91E00E949514CC23E1F0809194
:100C20007C028823C1F080E695E0909301018093D7
:100C3000000186E790E090930301809302010E94F7
:100C40008413E0910001F091010160E080E00995DA
:100C500010927C0203C081E080937C02CF910F91BF
:100C600008950F93CF93C62F882391F0909172022D
:100C7000890F80937202880F885C1AF08093770244
:100C800003C08FE780937702809177020E949B13C5
:100C900084EA91E00E94791566E18EE00E94C91312
:100CA0008091850269E0680F00E020E44EE0825008
:100CB0000E949C128091770260E090E00E94591A95
:100CC00068E28EE00E94C9138091850266E0680F99
:100CD00001E021E44EE082500E949C1241E060E07D
:100CE00087EC91E00E949514CC23F1F080917C0276
:100CF0008823D1F080E695E0909301018093000174
:100D000086E790E090930301809302010E94841390
:100D1000E0910001F091010160E080E009951092FE
:100D20007C021092720203C081E080937C02CF911A
:100D30000F9108951F93CF93DF93162FE0917402C4
:100D4000F0917502C381D4818823B1F0082E000C84
:100D5000990B9C01220F331F880F991F880F991F31
:100D6000880F991F820F931FC80FD91FC93E83E0B8
:100D7000D80710F0C8EED3E080EB91E00E9479151F
:100D800040E062E089EB91E00E94841660E0CE01D1
:100D90000E94591A41E064E085EC91E00E948416BB
:100DA000E0917402F0917502D483C3831123C1F0E2
:100DB00080917C028823A1F080E695E09093010168
:100DC000809300010E948413E0910001F0910101E1
:100DD00060E080E0099510927C021092720203C0DC
:100DE00081E080937C02DF91CF911F910895EF9273
:100DF000FF920F931F93CF93DF93182F062FE0914D
:100E00007402F091750265817681878190850E94D8
:100E10003E1BEB011123B1F0212F110F330BE90120
:100E2000CC0FDD1F220F331F220F331F220F331F62
:100E3000C20FD31FC60FD71FC03187E2D80710F0EB
:100E4000CFE0D7E28CEC91E00E94791540E062E0BF
:100E500085ED91E00E94841660E0CE010E94591A4F
:100E600041E064E085EC91E00E948416E090740219
:100E7000F0907502BE0180E090E00E946D1BF701CA
:100E800065837683878390870023C1F080917C02FD
:100E90008823A1F080E695E0909301018093000102
:100EA0000E948413E0910001F091010160E080E074
:100EB000099510927C021092720203C081E0809327
:100EC0007C02DF91CF911F910F91FF90EF900895D9
:100ED0001F93CF93DF93162FE0917402F091750268
:100EE000C681D7818823B1F0082E000C990B9C0194
:100EF000220F331F880F991F880F991F880F991F82
:100F0000820F931FC80FD91FC93E83E0D80710F086
:100F1000C8EED3E080EB91E00E94791540E062E0FA
:100F200089EB91E00E94841660E0CE010E94591A7C
:100F300041E064E085EC91E00E948416E091740247
:100F4000F0917502D783C6831123C1F080917C0292
:100F50008823A1F080E695E0909301018093000141
:100F60000E948413E0910001F091010160E080E0B3
:100F7000099510927C021092720203C081E0809366
:100F80007C02DF91CF911F910895EF92FF920F9312
:100F90001F93CF93DF93182F062FE0917402F091E7
:100FA000750261817281838194810E943E1BEB01F5
:100FB000112351F0C12F110FDD0BC60FD71FC536FE
:100FC000D10510F0C4E6D0E080EB91E00E947915E5
:100FD00040E062E08EED91E00E94841660E0CE0178
:100FE0000E94591A41E064E085EC91E00E94841669
:100FF000E0907402F0907502BE0180E090E00E94E3
:101000006D1BF70161837283838394830023C1F096
:1010100080917C028823A1F080E695E09093010105
:10102000809300010E948413E0910001F09101017E
:1010300060E080E0099510927C021092720203C079
:1010400081E080937C02DF91CF911F910F91FF90FF
:10105000EF900895DF92EF92FF920F931F93CF933B
:10106000DF93D62E882399F090917202890F1AF09F
:101070008093720203C087E08093720280917202B3
:1010800087781CF48150886F8F5F80937202E091A3
:101090007402F0917502D2818BEE91E00E94791575
:1010A0006DE080E00E94C913C0E000E010E0ED2E8A
:1010B000F12C6DE08C2F0E94C913C701002E02C0D5
:1010C000959587950A94E2F780FF07C040E060E0BD
:1010D00084EF91E00E94321606C040E060E087EFA6
:1010E00091E00E9432160F5F1F4FC45FC03609F7B0
:1010F00066E180E00E94C91340E060E08AEF91E081
:101100000E94321640E064E085EC91E00E94841673
:1011100080917202873009F460C040E063E089EF9B
:1011200091E00E94841680917202982F990F890F86
:101130006FE1880F880F0E94C91340E060E088E0EB
:1011400092E00E943216DD2009F46DC080917C028D
:10115000882309F468C081E090E07C01009072026D
:1011600002C0EE0CFF1C0A94E2F7ED26E091740237
:10117000F0917502E2826DE080E00E94C913C0E048
:1011800000E010E0F12C6DE08C2F0E94C913C70124
:10119000002E02C0959587950A94E2F780FF07C05C
:1011A00040E060E084EF91E00E94321606C040E02B
:1011B00060E087EF91E00E9432160F5F1F4FC45F1F
:1011C000C43509F766E180E00E94C91340E060E0A1
:1011D0008AEF91E00E94321626C040E063E089EF7A
:1011E00091E00E94841641E064E085EC91E00E9469
:1011F0008416DD20C1F080917C028823A1F080E676
:1012000095E090930101809300010E948413E09186
:101210000001F091010160E080E0099510927C02EC
:101220001092720203C081E080937C02DF91CF9123
:101230001F910F91FF90EF90DF900895CF93DF9370
:10124000D62FE0917402F0917502C185882319F0C0
:1012500081E0C827C1878AE092E00E94791540E0CA
:1012600062E083E192E00E948416CC2339F041E0F1
:1012700060E08CE192E00E94321606C041E060E03E
:101280008FE192E00E94321641E064E085EC91E04B
:101290000E948416DD23C1F080917C028823A1F096
:1012A00080E695E090930101809300010E948413F1
:1012B000E0910001F091010160E080E00995109259
:1012C0007C021092720203C081E080937C02DF9165
:1012D000CF910895CF93DF93D62FE0917402F091D0
:1012E0007502C581882319F081E0C827C58383E290
:1012F00092E00E94791540E062E083E192E00E9472
:101300008416CC2339F041E060E08CE192E00E9449
:10131000321606C041E060E08FE192E00E94321692
:1013200041E064E085EC91E00E948416DD23C1F089
:1013300080917C028823A1F080E695E090930101E2
:10134000809300010E948413E0910001F09101015B
:1013500060E080E0099510927C021092720203C056
:1013600081E080937C02DF91CF910895CF93C62FC7
:1013700080917C02811102C00E9484138DE292E070
:101380000E94791540E061E082E392E00E948416B9
:1013900040E062E088E392E00E94841640E063E06F
:1013A0008EE392E00E94841641E064E085EC91E0D7
:1013B0000E9484166DE087E20E94C9130E943F1AC2
:1013C00066E187E20E94C9130E94A41A6FE187E2D6
:1013D0000E94C9138091870490E0880F991F880F9D
:1013E000991F41E060E08B5A9E4F0E9432160E9486
:1013F0004412CC23C1F080917C028823A1F080E6C6
:1014000095E090930101809300010E948413109253
:101410007C0210927D02E0910001F091010160E0F8
:1014200080E0099503C081E080937C02CF9108950C
:10143000CF93DF93C82FD62F80917C02811102C0F9
:101440000E948413CC23E1F080917002811118C0B6
:10145000809172028C0F1AF08093720203C082E0B6
:10146000809372029091720286E59802812D112478
:1014700097FD8395282F220F820F981B909372025D
:1014800083E492E00E94791580917202813009F420
:101490006AC0823009F4C3C08111FEC0DD2329F087
:1014A00080917C028111FCC038C080917C0288232D
:1014B000A1F180917002882381F1E0917402F09192
:1014C0007502808180937102CC2321F1C80F1AF03C
:1014D000C093710203C087E1809371029091710201
:1014E0008BE29802812D11248595859597FD839532
:1014F00028E1829F90191124909371029083DD233B
:1015000049F080917002882329F0109270021092A5
:101510007102C2C081E08093700240E062E082E329
:1015200092E00E94841666E187E20E94C913E0916E
:101530007402F091750261E080810E94051A41E019
:1015400061E08AE30E94CE13E0917402F09175028B
:1015500060E081810E94051A40E064E085EC91E042
:101560000E94841699C0DD2329F080917C028111AC
:10157000A1C02FC080917C02882359F18091700214
:10158000882339F1E0917402F09175028181809392
:101590007102CC23D9F0C80F1AF0C093710203C0B6
:1015A0008BE380937102809171026CE30E948C1C2A
:1015B000909371029183DD2349F08091700288231A
:1015C00029F0109270021092710266C081E080933F
:1015D000700240E062E082E392E00E94841666E1DD
:1015E00087E20E94C913E0917402F091750260E0F5
:1015F00080810E94051A41E061E08AE30E94CE13D7
:10160000E0917402F091750261E081810E94051AF7
:1016100040E064E085EC91E00E9484163DC040E02B
:1016200062E082E392E00E94841666E187E20E9413
:10163000C913E0917402F091750260E080810E940C
:10164000051A41E061E08AE30E94CE13E091740242
:10165000F091750260E081810E94051A41E064E02A
:1016600085EC91E00E948416DD23B1F080917C022C
:10167000882391F080E695E090930101809300012A
:101680000E948413E0910001F091010160E080E08C
:10169000099510927C0218C081E080937C0214C0EE
:1016A000E0917402F0917502808180937102C11102
:1016B0000DCF27CFE0917402F09175028181809364
:1016C0007102C11168CF79CFDF91CF910895CF9387
:1016D000DF93C82FD62F80917C02811102C00E9417
:1016E0008413CC2309F18091700281111DC0809177
:1016F00072028C0F1AF08093720203C086E080930E
:1017000072029091720283E99802812D1124890F4F
:101710008595859597FD8395282F220F220F220FFF
:10172000281B921B90937202E09172028E2FEE0F93
:10173000990BAA0BBB0B8730910508F052C4FC0132
:10174000EC5CFF4F0C94AE1CDD2329F080917C02F1
:1017500081114BC436C080917C02882391F1809125
:101760007002882371F18091840480937102CC23EC
:1017700029F1C80F1AF0C093710203C087E180936A
:101780007102909171028BE29802812D112485954E
:10179000859597FD839528E1829F90191124909358
:1017A000710290938404DD2349F0809170028823B4
:1017B00029F0109270021092710213C481E080939C
:1017C000700283E492E00E94791540E061E082E3D8
:1017D00092E00E94841640E062E088E392E00E947A
:1017E000841640E063E08EE392E00E94841641E0BC
:1017F00064E085EC91E00E9484166DE087E20E942F
:10180000C91361E0809184040E94051A41E061E0FF
:101810008AE30E94CE1360E080918B040E94051A37
:1018200066E187E20E94C91360E0809186040E940D
:10183000051A41E061E08AE30E94CE1360E08091E6
:101840008A040E94051A41E061E08AE30E94CE13F7
:1018500060E080918804909189040E94591A6FE198
:1018600087E20E94C9138091870490E0880F991F36
:10187000880F991F41E060E08B5A9E4F0E943216FC
:1018800040E064E085EC91E00E948416AAC3DD2369
:1018900029F080917C028111AFC32DC080917C0220
:1018A000882349F180917002882329F180918B046B
:1018B00080937102CC23E1F0C80F1AF0C09371023B
:1018C00003C08BE380937102809171026CE30E94EC
:1018D0008C1C9093710290938B04DD2349F08091CE
:1018E0007002882329F0109270021092710279C35D
:1018F00081E08093700283E492E00E94791540E0D9
:1019000061E082E392E00E94841640E062E088E3B6
:1019100092E00E94841640E063E08EE392E00E9431
:10192000841641E064E085EC91E00E9484166DE04D
:1019300087E20E94C91360E0809184040E94051A26
:1019400041E061E08AE30E94CE1361E080918B0464
:101950000E94051A66E187E20E94C91360E0809147
:1019600086040E94051A41E061E08AE30E94CE13DA
:1019700060E080918A040E94051A41E061E08AE3F8
:101980000E94CE1360E080918804909189040E94A7
:10199000591A6FE187E20E94C9138091870490E091
:1019A000880F991F880F991F41E060E08B5A9E4F66
:1019B0000E94321640E064E085EC91E00E948416BB
:1019C00010C3DD2329F080917C02811131C339C01D
:1019D00080917C028823A9F180917002811138C323
:1019E00030C020917102C20F1C161CF4C09371020A
:1019F00002C08093710220917102022E000C330B01
:101A0000BC0177276F5F7F4FC9010E949A1C882312
:101A100019F08093710203C081E08093710280917C
:101A2000710280938604DD2349F08091700288233F
:101A300029F01092700210927102D3C281E080935B
:101A4000700283E492E00E94791540E061E082E355
:101A500092E00E94841640E062E088E392E00E94F7
:101A6000841640E063E08EE392E00E94841641E039
:101A700064E085EC91E00E9484166DE087E20E94AC
:101A8000C91360E0809184040E94051A41E061E07E
:101A90008AE30E94CE1360E080918B040E94051AB5
:101AA00066E187E20E94C91361E0809186040E948A
:101AB000051A41E061E08AE30E94CE1360E0809164
:101AC0008A040E94051A41E061E08AE30E94CE1375
:101AD00060E080918804909189040E94591A6FE116
:101AE00087E20E94C9138091870490E0880F991FB4
:101AF000880F991F41E060E08B5A9E4F0E9432167A
:101B000040E064E085EC91E00E9484166AC2DD2327
:101B100029F080917C02811176C23BC080917C02C9
:101B20008823B9F180917002882399F180918A0409
:101B300080937102CC2351F1C80F1C1624F08CE065
:101B40008093710214C08FE4C802812D1124859501
:101B50008595C7FD83959DE0899FC0191124CC23ED
:101B600019F0C093710203C081E0809371028091EB
:101B7000710280938A04DD2349F0809170028823EA
:101B800029F010927002109271022BC281E08093B2
:101B9000700283E492E00E94791540E061E082E304
:101BA00092E00E94841640E062E088E392E00E94A6
:101BB000841640E063E08EE392E00E94841641E0E8
:101BC00064E085EC91E00E9484166DE087E20E945B
:101BD000C91360E0809184040E94051A41E061E02D
:101BE0008AE30E94CE1360E080918B040E94051A64
:101BF00066E187E20E94C91360E0809186040E943A
:101C0000051A41E061E08AE30E94CE1361E0809111
:101C10008A040E94051A41E061E08AE30E94CE1323
:101C200060E080918804909189040E94591A6FE1C4
:101C300087E20E94C9138091870490E0880F991F62
:101C4000880F991F41E060E08B5A9E4F0E94321628
:101C500040E064E085EC91E00E948416C2C1DD237F
:101C600029F080917C028111D5C12EC080917C0227
:101C7000882351F180917002882331F1809188048A
:101C800080937102CC23E9F0C80F1C161CF4C0939A
:101C9000710203C080ED8093710280917102082E61
:101CA000000C990B9093890480938804DD2349F0FC
:101CB00080917002882329F01092700210927102B4
:101CC00090C181E08093700283E492E00E947915D4
:101CD00040E061E082E392E00E94841640E062E02E
:101CE00088E392E00E94841640E063E08EE392E095
:101CF0000E94841641E064E085EC91E00E94841625
:101D00006DE087E20E94C91360E0809184040E9424
:101D1000051A41E061E08AE30E94CE1360E0809101
:101D20008B040E94051A66E187E20E94C91360E0F5
:101D3000809186040E94051A41E061E08AE30E94D6
:101D4000CE1360E080918A040E94051A41E061E0B0
:101D50008AE30E94CE1361E0809188049091890407
:101D60000E94591A6FE187E20E94C913809187048B
:101D700090E0880F991F880F991F41E060E08B5A0F
:101D80009E4F0E94321640E064E085EC91E00E9494
:101D9000841627C1DD2329F080917C02811141C185
:101DA00039C080917C028823A9F180917002882338
:101DB00089F18091870480937102CC2341F1C80F8F
:101DC0001AF0C093710203C086E080937102909173
:101DD000710283E99802812D1124890F85958595DB
:101DE00097FD8395282F220F220F220F281B921B6D
:101DF0009093710290938704DD2349F080917002E3
:101E0000882329F01092700210927102EAC081E0DA
:101E10008093700283E492E00E94791540E061E0D3
:101E200082E392E00E94841640E062E088E392E060
:101E30000E94841640E063E08EE392E00E948416E4
:101E400041E064E085EC91E00E9484166DE087E259
:101E50000E94C91360E0809184040E94051A41E049
:101E600061E08AE30E94CE1360E080918B040E94BF
:101E7000051A66E187E20E94C91360E0809186043A
:101E80000E94051A41E061E08AE30E94CE1360E0FF
:101E900080918A040E94051A41E061E08AE30E9471
:101EA000CE1360E080918804909189040E94591AB1
:101EB0006FE187E20E94C9138091870490E0880F48
:101EC000991F880F991F41E061E08B5A9E4F0E9435
:101ED000321640E064E085EC91E00E94841681C0F7
:101EE00083E492E00E94791540E061E082E392E0B1
:101EF0000E94841640E062E088E392E00E9484162B
:101F000040E063E08EE392E00E94841641E064E0EA
:101F100085EC91E00E9484166DE087E20E94C9136F
:101F200060E0809184040E94051A41E061E08AE348
:101F30000E94CE1360E080918B040E94051A66E136
:101F400087E20E94C91360E0809186040E94051A0E
:101F500041E061E08AE30E94CE1360E080918A0450
:101F60000E94051A41E061E08AE30E94CE1360E01E
:101F700080918804909189040E94591A6FE187E248
:101F80000E94C9138091870490E0880F991F880FE1
:101F9000991F41E060E08B5A9E4F0E94321641E04B
:101FA00064E085EC91E00E948416DD23D1F08091FD
:101FB0007C028823B1F080E695E090930101809344
:101FC00000010E9484131092700210927C02109201
:101FD0007D02E0910001F091010160E080E009954F
:101FE00048C081E080937C0244C080918404809347
:101FF0007102C111BECBD9CB80918B048093710249
:10200000C1115ACC6CCC80918A0480937102C111A9
:1020100093CDB3CD8091880480937102C11134CEE9
:1020200047CE8091870480937102C111C8CEE6CE5D
:10203000809186048093710260918A0470E080919F
:102040008804909189040E943C04C111CACCEDCC53
:10205000809186048093710260918A0470E080917F
:102060008804909189040E943C04CC2309F4E6CCB6
:10207000B8CCDF91CF910895CF93DF93C62FE09135
:102080007402F091750280810E948A11D82F8CE42D
:1020900092E00E94791540E062E088E592E00E94BB
:1020A000841660E08D2F90E00E94591A41E064E0B0
:1020B00085EC91E00E948416CC23C1F080917C02D3
:1020C0008823A1F080E695E09093010180930001C0
:1020D0000E948413E0910001F091010160E080E032
:1020E000099510927C021092720203C081E08093E5
:1020F0007C02DF91CF910895EF92FF920F931F938F
:10210000CF93DF93162F00E02BE445E061E28DE0F2
:102110000E949C120E944412E0917402F091750298
:10212000C08180E090E00E94EC1C90E08734910533
:102130001CF08554910902C080E090E02C2F30E023
:102140002150310946E9429F7001439FF00C112450
:102150008E0D9F1D9C012F5F3F4F7901C6E0D1E29C
:10216000C7010E94EC1C682F70E080E090E00E94A4
:102170006F1B2DEC3CEC4CE45EE30E941F1C0E94A4
:102180003E1B3D2F361B632F01E02D2F4C2F8C2F34
:102190000E94C6148FEFE81AF80ACF5FCC3401F71B
:1021A00085E692E00E94791521E24BE461E285E048
:1021B0000E94C61421E245E06DE085E00E94C6144D
:1021C0002DE045E06DE083E00E94C61422E145E089
:1021D00062E184E00E94C61427E145E067E183E004
:1021E0000E94C6142CE145E06CE184E00E94C61414
:1021F00021E245E061E283E00E94C61421E245E06D
:1022000061E285E00E94C61423E24CE061E28CE0CA
:102210000E94C61423E243E161E283E10E94C614F6
:1022200023E24AE161E28AE10E94C61423E241E22C
:1022300061E281E20E94C61423E248E261E288E2A0
:102240000E94C61423E24FE261E28FE20E94C614AC
:1022500023E246E361E286E30E94C61423E24DE3F3
:1022600061E28DE30E94C61423E244E461E284E467
:102270000E94C61423E24BE461E28BE40E94C61480
:1022800041E064E085EC91E00E9484161123C1F0E6
:1022900080917C028823A1F080E695E09093010173
:1022A000809300010E948413E0910001F0910101EC
:1022B00060E080E0099510927C021092720203C0E7
:1022C00081E080937C02DF91CF911F910F91FF906D
:1022D000EF90089587B1877C87B988B1877C88B9EA
:1022E00080E480937C00EAE7F0E080818560808371
:1022F000808180688083808180648083808186FF84
:1023000008C0A8E7B0E08D919C911197808186FD6F
:10231000FACF0895ECE7F0E090818E5F8F71907EA8
:10232000982B9083EAE7F0E080818064808380814D
:1023300086FDFDCF609178007091790080E090E09B
:102340000E946D1B27E231E348EC5DE30E941F1CF5
:102350000E94371B862F08950F931F93CF93DF930F
:10236000809184048C30C9F580918B04811135C033
:1023700080918504813059F580917602811127C0C2
:1023800081E08093760280E090E00E94EC1CD82FE0
:10239000082F10E00F5F1F4FC0E0CF5F8C2F0E940F
:1023A0008A11682FC8010E94F41C0A561F4FC330BF
:1023B000A1F761E06D0F80E090E00E94061D809122
:1023C00084048C3051F480918B04811106C080917B
:1023D0008504823011F410927602DF91CF911F9123
:1023E0000F910895209A229A579A219A2A9A299A07
:1023F0000E94D11808952A980E94D6182A9A089502
:10240000CF93DF9300D000D0CDB7DEB7AB01BC01D6
:1024100019821A821B821C8289819A81AB81BC81BC
:1024200084179507A607B707A0F489819A81AB8125
:10243000BC810196A11DB11D89839A83AB83BC83A6
:1024400089819A81AB81BC8184179507A607B7075C
:1024500060F30F900F900F900F90DF91CF91089540
:10246000882321F0813019F4289A01C02898862FFA
:102470000E94FB11089560E880E00E94301260E441
:1024800080E00E9430120895CF92DF92EF92FF9287
:102490000F931F93CF93DF93C12CD12C20E030E01A
:1024A000D0E0790188E0E80EF11C8091790290E09B
:1024B000E816F90634F18091780290E082179307CC
:1024C00044F16D2F606480E00E94301260917B02C5
:1024D000606880E00E943012C0917B0280917A0295
:1024E0008C1778F0860109571D4FF801EC0FF11D8C
:1024F000608181E00E943012CF5F80917A028C1758
:10250000A0F7DF5F84E5C80ED11C970120333105A9
:1025100041F683E580937B0210927A028FE28093EA
:10252000790210927802DF91CF911F910F91FF9065
:10253000EF90DF90CF9008955F926F927F928F928D
:102540009F92AF92BF92CF92DF92EF92FF920F9342
:102550001F93CF93DF9330ED360F962FE12CF12CA4
:10256000C8E0D0E0C82ED12CA62EB12C460158E0F0
:10257000850E911C0F2EF7E06F2EF02DA1E0B0E03C
:10258000782E761ACC15DD050CF446C0BE016850D5
:102590007109A616B7060CF44FC0B4016C1B7D0B75
:1025A0000AF442C0572D590FB5016C1B7D0B16164E
:1025B000170614F0E92F01C0E62DE51718F40FC037
:1025C000E62D50E080E0BD01052E02C0660F771FAA
:1025D0000A94E2F7862B5F5FE517A8F701C080E059
:1025E0002417D0F0B701542F182F1095002349F06D
:1025F000FB01E50FF11DE957FD4F5080582A50822D
:1026000008C0FB01E50FF11DE957FD4F5080512235
:1026100050825F5F251750F7289684E5E80EF11C7D
:1026200098509313AFCF08C0B5016C1B7D0B1616E5
:10263000170634F250E0BECFDF91CF911F910F917A
:10264000FF90EF90DF90CF90BF90AF909F908F90D2
:102650007F906F905F90089590917B02891710F49E
:1026600080937B0280917A02841710F440937A025F
:1026700080917902681710F4609379028091780252
:10268000821710F42093780208958435E0F56033C2
:10269000D0F54423D1F0E82FF0E0962F969596954B
:1026A000969524E5929FE00DF11D1124E957FD4F09
:1026B000962F977021E030E002C0220F331F9A95C9
:1026C000E2F79081292B20831AC0E82FF0E0962FA3
:1026D00096959695969524E5929FE00DF11D11240F
:1026E000E957FD4F962F977021E030E002C0220F8E
:1026F000331F9A95E2F72095908129232083262F76
:10270000482F0E942C1308950E943B12E7E8F2E044
:102710008FE794E01192E817F907E1F7109286022B
:10272000109285022FE243E560E080E00E942C13C6
:102730000E9444120895CF93C82F0E94F2115F980F
:1027400064E670E080E090E00E9400125F9A61E22F
:1027500080E00E94301264E180E00E943012CC23BD
:102760000CF4CFE76C2F606880E00E94301260E2CA
:1027700080E00E9430126CE080E00E9430120E94E3
:102780003B126CE080E00E9430120E948413CF91D3
:102790000895809386026093850208953F924F9238
:1027A0005F927F928F929F92AF92BF92CF92DF9271
:1027B000EF92FF920F931F93CF93DF9300D000D03F
:1027C000CDB7DEB7382E162F042F413029F086E022
:1027D0006894772473F805C084E00F2EF6E07F2E0E
:1027E000F02D282F30E080918602A901480F511D5D
:1027F000453551053CF080918502870D8093850217
:1028000010928602B901615071097A836983E0E010
:10281000F0E0512C832D90E09C0120523109690198
:10282000CC0CDD1C2C0D3D1DA901440F551FBA0118
:1028300068527A4F5B01A90146565B4F6A017C01E1
:10284000EE0CFF1C8E0D9F1D880F991FBC01625E50
:10285000774F7B017FE1731530F001110DC0EE0D54
:10286000FF1D449009C0013021F4EC0DFD1D449082
:1028700003C0EA0DFB1D4490772081F1812C912C3F
:10288000842D90E09C838B83113089F44B815C8193
:10289000082C02C0559547950A94E2F74170609163
:1028A0008502680D809186020E94451312C04B81FB
:1028B0005C81082C02C0559547950A94E2F791E097
:1028C0004927417060918502680D809186020E94BF
:1028D00045132FEF821A920A8714B0F28091860274
:1028E00091E0980F909386025394E52DF0E0498192
:1028F0005A81E417F5070CF4ADCF8E5F8093860202
:102900000F900F900F900F90DF91CF911F910F912B
:10291000FF90EF90DF90CF90BF90AF909F908F90FF
:102920007F905F904F903F9008950F931F93CF93A8
:10293000DF93EC018881882351F0042F162F219614
:10294000402F612F0E94CE1389918111F9CFDF9121
:10295000CF911F910F9108950F931F93CF93DF9302
:10296000FC018491882369F0042F162FEF01219632
:10297000402F612F0E94CE13FE0121968591811177
:10298000F7CFDF91CF911F910F9108958F929F9272
:10299000AF92BF92CF92DF92FF920F931F93CF938C
:1029A000DF93D82FC62FF42E122F481710F4D42FF0
:1029B000F82E1C1718F48C2FC12F182F8F2D90E094
:1029C0008D1B910949F4402F6C2F8D2F0E944513C8
:1029D000CF5F1C17C0F75AC0212F30E02C1B3109E4
:1029E00049F4402F6C2F8D2F0E944513DF5FFD1699
:1029F000C0F74CC02817390724F55901AA0CBB1C95
:102A00006501C81AD90ADF15B1F0281B390B490135
:102A1000880C991C402F6C2F8D2F0E944513DF5F6F
:102A20001C141D0424F4CF5FC80CD91C02C0CA0CAE
:102A3000DB1CFD12EFCF402F6C2F8F2D0E94451312
:102A400025C06C01CC0CDD1CC21AD30AC117C9F019
:102A50005901A81AB90AAA0CBB1C4901880C991C77
:102A6000402F6C2F8D2F0E944513CF5F1C141D0427
:102A700024F4DF5FCA0CDB1C02C0C80CD91C1C1379
:102A8000EFCF402F612F8D2F0E944513DF91CF9103
:102A90001F910F91FF90DF90CF90BF90AF909F90CC
:102AA0008F900895EF92FF920F93CF937C01CEE029
:102AB000C09386021092850200E020E44EE069E0B7
:102AC0008EEF0E949C1240E061E0C7010E94AC14AE
:102AD000C093860289E08093850201E029E040E40A
:102AE00069E08EE00E94C614CF910F91FF90EF90A5
:102AF0000895EF92FF920F93CF937C01CEE0C093A5
:102B000086021092850200E020E44EE069E08EEF3C
:102B10000E949C1240E061E0C7010E949514C0939E
:102B2000860289E08093850201E029E040E469E0C3
:102B30008EE00E94C614CF910F91FF90EF90089500
:102B4000EF92FF920F93CF93DF937C01D62FC42F88
:102B50000E94E31CC130F9F44091860290918502F5
:102B600001E0D11101C000E0282F220F220F240F15
:102B700066E0690F8EEF890F0E949C128091860299
:102B80008F5F8093860261E0D11160E041E0C70170
:102B90000E94AC1421C0C1111FC0409186029091C7
:102BA000850201E0D11101C000E0282F220F280F7B
:102BB000220F240F68E0690F8EEF890F0E949C128C
:102BC000809186028F5F8093860261E0D11160E080
:102BD00040E0C7010E94AC14DF91CF910F91FF90AC
:102BE000EF9008950F931F93CF93DF93EC01142F71
:102BF000623081F018F4613031F020C0633089F028
:102C00006430B1F01BC08EE0809386028DE080932B
:102C1000850214C08EE08093860286E1809385024F
:102C20000DC08EE0809386028FE18093850206C0FE
:102C30008EE08093860288E28093850280918502EF
:102C400066E0680F00E024E540E082500E949C129C
:102C500041E0612FCE010E94A015DF91CF911F911D
:102C60000F9108950F931F93CF93DF93EC01162FCD
:102C7000FC0101900020E9F73197E81BF90B413086
:102C8000F1F4409186028091850201E0611101C05A
:102C900000E0EE0FEE0F2E2F240F66E0680F82503B
:102CA0000E949C12809186028F5F8093860261E071
:102CB000111160E041E0CE010E94951420C0411145
:102CC0001EC0409186028091850201E0611101C021
:102CD00000E02E2F220F2E0F220F240F68E0680F26
:102CE00082500E949C12809186028F5F80938602A0
:102CF00061E0111160E040E0CE010E949514DF9187
:102D0000CF911F910F9108950F931F93CF93DF934E
:102D1000EC01142F623081F018F4613031F020C0E2
:102D2000633089F06430B1F01BC08EE0809386027E
:102D30008DE08093850214C08EE08093860286E148
:102D4000809385020DC08EE0809386028FE1809390
:102D5000850206C08EE08093860288E28093850219
:102D60008091850266E0680F00E024E540E0825033
:102D70000E949C1241E0612FCE010E943216DF9129
:102D8000CF911F910F910895809184028C3319F493
:102D9000299B07C02998809184028C3310F4299BC9
:102DA000299A089588B1876088B987B1876087B903
:102DB000089591E09627823049F0833069F08130A0
:102DC00089F468B16E7F962B98B9089568B16D7FCC
:102DD000990F962B98B9089568B16B7F990F990F49
:102DE000962B98B908958F929F92BF92CF92DF92BF
:102DF000EF92FF920F931F93CF93DF9381E090E0C8
:102E00006C010090870402C0CC0CDD1C0A94E2F730
:102E10000EE211E0DD24D394F12CE12CBB24B39419
:102E20004801F801C081D18189858823C9F0988142
:102E300080918404981314C0998180918B04981315
:102E40000FC08091850481110BC08A818C2141F0D3
:102E50008A8581110BC0BA866B2D8D2D0E94D916E3
:102E6000F401C081D1818A858823C1F16B817C8185
:102E700080E090E00E946D1B2D813E814F8158853E
:102E80000E94C51A20E030E040E752E40E941F1C77
:102E90000E94371B6C33710530F0E3946C53710959
:102EA0006C337105D0F789818E0D8C3320F0F3944B
:102EB0008C538C33E0F79881F90E90918404F912C9
:102EC0000DC090918B04981309C0809185048613DE
:102ED00005C01A8660E08D2D0E94D916D3940E5F2E
:102EE0001F4FF4E0DF129CCFDF91CF911F910F9124
:102EF000FF90EF90DF90CF90BF909F908F900895BC
:102F00004F925F926F927F928F929F92AF92BF92F9
:102F1000CF92DF92EF92FF920F931F93CF93DF93A5
:102F200004E011E00F2EFEE2EF2EF1E0FF2EF02D77
:102F300066246394C0E0D0E0712C5524539458016A
:102F4000D801ED91FC9185818823A1F1D701CD9025
:102F5000DC90D6011A968C91811134C08385811141
:102F6000B4C080810E948A11F801C080D180682F8E
:102F700070E080E090E00E946F1BD60111962D91C9
:102F80003D914D915C9114970E94C01A181694F0CF
:102F9000D701ED91FC91528680918404F6018087DF
:102FA00080918B048187809185048287652D862D91
:102FB0000E94D916D701CD90DC90F6018285882336
:102FC00009F451C0D5018D909C90F4016681778100
:102FD00080E090E00E946D1BD60115962D913D91E9
:102FE0004D915C9118970E94C51A20E030E040E7AF
:102FF00052E40E941F1C0E94371B6C33710530F095
:1030000073946C5371096C337105D0F7F401C18569
:10301000C70DCC3320F0DF5FCC53CC33E0F7D401C5
:1030200018968C911897D80F80918404D8131BC0E0
:1030300040908B044C1217C01A968C91680F8091A7
:10304000850468130FC0F601128660E0862D0E9489
:10305000D916D501ED91FC9111975386ED91FC9114
:10306000C42D07C0C42DD501ED91FC918385882323
:1030700011F182858C5E8C3320F0CF5F8C538C33C2
:10308000E0F79185C90FCC3320F0DF5FCC53CC3310
:10309000E0F79085D90F90918404D9130CC09091DA
:1030A0008B049C1308C020918504281303C0138649
:1030B000C92F01C0C92F63940E5F1F4FB2E0EB0E02
:1030C000F11CE4E06E123BCF04C0D801ED91FC91FD
:1030D000D0CFDF91CF911F910F91FF90EF90DF90B4
:1030E000CF90BF90AF909F908F907F906F905F90A8
:1030F0004F9008951F920F920FB60F9211248F9345
:1031000081E080937D028F910F900FBE0F901F90F2
:1031100018958AB18B798AB95A98E9E6F0E08081EE
:1031200082608083E89A78940895F89480917F046F
:10313000909180041092800410927F0478940895F6
:103140004D9B07C081E090E090937F0280937E02C8
:1031500023C010927F0210927E0280918002909193
:1031600081020097C9F04E9B0CC080917F04909122
:10317000800401979093800480937F0480E090E026
:103180000BC080917F0490918004019690938004FD
:1031900080937F0480E090E090938102809380028E
:1031A00008958CE284B981E58CBD089593E09A95E9
:1031B000F1F700008EBD0DB407FEFDCF83E08A95C8
:1031C000F1F700000895E1E8F0E0808189608083F4
:1031D0008FE99FE0909389008093880082E080933C
:1031E0006F00109282041092810410928504109254
:1031F0008B049CE09093840491E0909386048093E8
:103200008A0485EE97E09093890480938804109255
:10321000870408951F920F920FB60F9211242F93D7
:103220003F934F935F936F937F938F939F93AF934E
:10323000BF93EF93FF938091810490918204019654
:10324000909382048093810480918302833021F4DF
:103250000E94A01810928302809183028F5F809356
:1032600083028091810490918204883E934009F00A
:10327000BBC0809185048F5F809385041092820487
:103280001092810491E090938304909184029D3385
:1032900018F49F5F909384028C3309F0A5C01092BC
:1032A000850480918B048F5F8C3318F480938B049A
:1032B0009BC010928B04809184048F5F883118F436
:1032C0008093840491C0109284048091860441E02C
:1032D000480F40938604809187048F5F873018F4ED
:1032E0008093870402C01092870450918A04523060
:1032F00009F043C0E0918804F0918904CF01837004
:103300009927892BB9F59F013695279536952795ED
:10331000ABE7B4E10E94B41C9695879564E6689F7C
:103320009001699F300D1124E217F307F9F49F0112
:10333000329522952F7023273F702327AEE3BAE002
:103340000E94B41C20E931E0BC01629FC001639F70
:10335000900D729F900D1124E817F90721F481E078
:103360008093820232C0109282022FC081E080934B
:1033700082022BC01092820228C010928202842FF7
:1033800090E0E52FF0E0EF58FE4F208130E0281765
:10339000390754F581E0809386045F5F5D3018F44F
:1033A00050938A0421C081E080938A04809188042C
:1033B000909189040196909389048093880414C0A5
:1033C00081E0809386045F5FEBCF842F90E0E52F50
:1033D000F0E0EF58FE4F40812091820230E0240F50
:1033E000311D2817390764F3FF91EF91BF91AF9119
:1033F0009F918F917F916F915F914F913F912F910D
:103400000F900FBE0F901F901895FF920F931F9370
:10341000CF93DF93162F0E945D04C82FF82EF694E9
:10342000F694F694F694409186028091850201E02C
:10343000111101C000E028E0240F66E0680F8250FF
:103440000E949C1280918602609185028F5F0E948B
:10345000C913D1E01111D0E041E06D2F80E38F0D51
:103460000E94CE138C2F8F7041E06D2F805D0E94E3
:10347000CE13DF91CF911F910F91FF90089560E0DF
:10348000809184040E94051A41E061E08AE30E9471
:10349000CE1360E080918B040E94051A41E061E048
:1034A0008AE30E94CE1360E0809185040E94051A91
:1034B0000895FF920F931F93CF93DF93F62E0E94F0
:1034C0006C04EC01409186028091850201E0F110CC
:1034D00001C000E020E1240F66E0680F82500E94E6
:1034E0009C1280918602609185028F5F0E94C913B1
:1034F00011E0F11010E08D2F82958F7041E0612F67
:10350000805D0E94CE138D2F8F7041E0612F805D12
:103510000E94CE13CE01929582958F7089279F705D
:1035200089278F7041E0612F805D0E94CE138C2F20
:103530008F7041E0612F805D0E94CE13DF91CF91AB
:103540001F910F91FF90089560E0809186040E9482
:10355000051A41E061E08EE20E94CE1360E08091A6
:103560008A040E94051A41E061E08EE20E94CE13B7
:1035700060E080918804909189040E94591A08950E
:103580000E94AA1B08F481E008950E94D91A0C94A5
:10359000E51B0E94DE1B58F00E94D71B40F029F467
:1035A0005F3F29F00C94CE1B51110C94191C0C9404
:1035B000D41B0E94F61B68F39923B1F3552391F3B2
:1035C000951B550BBB27AA2762177307840738F092
:1035D0009F5F5F4F220F331F441FAA1FA9F335D0EF
:1035E0000E2E3AF0E0E832D091505040E695001CA3
:1035F000CAF72BD0FE2F29D0660F771F881FBB1F5D
:10360000261737074807AB07B0E809F0BB0B802D3A
:10361000BF01FF2793585F4F3AF09E3F510578F066
:103620000C94CE1B0C94191C5F3FE4F3983ED4F32A
:10363000869577956795B795F7959F5FC9F7880F3A
:10364000911D9695879597F90895E1E0660F771F8C
:10365000881FBB1F621773078407BA0720F0621B1D
:10366000730B840BBA0BEE1F88F7E09508950E9448
:103670003E1B6894B1110C94191C08950E94FE1B06
:1036800088F09F5798F0B92F9927B751B0F0E1F023
:10369000660F771F881F991F1AF0BA95C9F714C0D3
:1036A000B13091F00E94181CB1E008950C94181CE0
:1036B000672F782F8827B85F39F0B93FCCF386950C
:1036C00077956795B395D9F73EF490958095709569
:1036D00061957F4F8F4F9F4F0895E89409C097FBE6
:1036E0003EF490958095709561957F4F8F4F9F4FD9
:1036F0009923A9F0F92F96E9BB279395F69587951D
:1037000077956795B795F111F8CFFAF4BB0F11F4DF
:1037100060FF1BC06F5F7F4F8F4F9F4F16C0882386
:1037200011F096E911C0772321F09EE8872F762FBC
:1037300005C0662371F096E8862F70E060E02AF0FD
:103740009A95660F771F881FDAF7880F96958795E9
:1037500097F90895990F0008550FAA0BE0E8FEEFBE
:1037600016161706E807F907C0F012161306E40745
:10377000F50798F0621B730B840B950B39F40A263E
:1037800061F0232B242B252B21F408950A2609F41C
:10379000A140A6958FEF811D811D089597F99F6720
:1037A00080E870E060E008959FEF80EC08950024C9
:1037B0000A941616170618060906089500240A9496
:1037C00012161306140605060895092E0394000C1C
:1037D00011F4882352F0BB0F40F4BF2B11F460FFAB
:1037E00004C06F5F7F4F8F4F9F4F089557FD9058D4
:1037F000440F551F59F05F3F71F04795880F97FBB5
:10380000991F61F09F3F79F087950895121613066E
:103810001406551FF2CF4695F1DF08C0161617069D
:103820001806991FF1CF86957105610508940895D2
:10383000E894BB2766277727CB0197F908950E9464
:10384000321C0C94E51B0E94D71B38F00E94DE1B33
:1038500020F0952311F00C94CE1B0C94D41B112452
:103860000C94191C0E94F61B70F3959FC1F3950FE1
:1038700050E0551F629FF001729FBB27F00DB11DF4
:10388000639FAA27F00DB11DAA1F649F6627B00D84
:10389000A11D661F829F2227B00DA11D621F739F6D
:1038A000B00DA11D621F839FA00D611D221F749F7B
:1038B0003327A00D611D231F849F600D211D822FC2
:1038C000762F6A2F11249F5750409AF0F1F08823E9
:1038D0004AF0EE0FFF1FBB1F661F771F881F915016
:1038E0005040A9F79E3F510580F00C94CE1B0C94DC
:1038F000191C5F3FE4F3983ED4F38695779567955E
:10390000B795F795E7959F5FC1F7FE2B880F911D3F
:103910009695879597F9089587FB082E062687FDCB
:10392000819567FD61950E94C31C0EF4919507FC7B
:103930008195089597FB072E16F4009407D077FD24
:1039400009D00E94CF1C07FC05D03EF490958195CC
:103950009F4F0895709561957F4F0895EE0FFF1F5B
:103960000590F491E02D0994A29FB001B39FC0018E
:10397000A39F700D811D1124911DB29F700D811D9B
:103980001124911D0895991B79E004C0991F961781
:1039900008F0961B881F7A95C9F780950895AA1B91
:1039A000BB1B51E107C0AA1FBB1FA617B70710F02A
:1039B000A61BB70B881F991F5A95A9F7809590955C
:1039C000BC01CD010895FC0105900020E9F7809528
:1039D00090958E0F9F1F0895F999FECF92BD81BDDE
:1039E000F89A992780B50895262FF999FECF92BDB0
:1039F00081BDF89A019700B4021639F01FBA20BDB4
:103A00000FB6F894FA9AF99A0FBE0895262FF999ED
:103A1000FECF1FBA92BD81BD20BD0FB6F894FA9AB1
:0C3A2000F99A0FBE01960895F894FFCFAC
:103A2C0060057600220116010A010300008C420099
:103A3C00C8000C000000020000704200C8000C001E
:103A4C000000010000484200C8000C0000004A01C0
:103A5C003F0134010C010132000080BB4401000C19
:103A6C00010164000080BB4401000C0001C800008F
:103A7C0080BB4401006D6F6E0074756500776564E2
:103A8C000074687500667269007361740073756EFA
:103A9C0000001F1C1F1E1F1E1F1F1E1F1E1F465710
:103AAC00205665723A200076312E302E300041754A
:103ABC0074686F723A20005068696C6970702048A5
:103ACC0061636B004C4344636F6E7472617374007A
:103ADC0070756D7020766F6C00566F6C20696E205F
:103AEC006D6C3A20003C2D6261636B0070756D70DB
:103AFC002063616C006D6C2F6D696E3A20007468E8
:103B0C0072657320696E20253A200070756D7020E7
:103B1C00646179000220000120004D2054205720C0
:103B2C0054204620532053007D0070756D70206129
:103B3C00726D007374617475733A20006F6E006F50
:103B4C006666006D6F6973742061726D0054696DE7
:103B5C00650054696D653A00446174653A004461CE
:103B6C00793A007365742074696D65006D6F6973C3
:103B7C0074206C6576656C006C6576656C20696E7E
:0E3B8C0020253A20006D6F6973742065650076
:00000001FF
